:1000000000300020C1000000D32E0000FB3E0000A5
:1000100000000000000000000000000000000000E0
:10002000000000000000000000000000033E00008F
:100030000000000000000000893E0000D13E0000EA
:10004000033F0000033F0000033F0000033F0000A8
:10005000033F0000033F0000033F0000033F000098
:10006000033F0000033F0000033F0000033F000088
:10007000033F0000033F0000033F0000033F000078
:10008000033F0000033F0000033F0000033F000068
:10009000033F0000033F0000033F0000033F000058
:1000A000033F0000033F0000033F0000033F000048
:1000B000033F0000033F0000033F0000033F000038
:1000C0000749084A084B9B1A05DD002408591051BE
:1000D00004349C42FADB054880470548004700008D
:1000E000987A0000C0F0FF1FC4F2FF1FE12E00004D
:0400F0005D0A0000A5
:10040000FFFFFFFFFFFFFFFFFFFFFFFFFEFFFFFFFD
:1004100010B5064C2378002B07D1054B002B02D0DA
:10042000044800E000BF0123237010BDC8F2FF1F85
:10043000000000008C7A0000084B10B5002B03D0A0
:100440000749084800E000BF07480368002B00D1B7
:1004500010BD064B002BFBD09847F9E700000000C9
:10046000CCF2FF1F8C7A0000C4F2FF1F00000000D6
:1004700010B50368984710BD002801D00B680360D1
:100480007047704770B5FF2501241D4E300003F002
:1004900093F8002832D03000303002F033FF0300F0
:1004A0002B40022B17D0032B1ED0164A1378072B94
:1004B000EBDC154B1B78002BE7D0144B1B78002B83
:1004C000E3D113781249DBB2C0B2C85413780133B8
:1004D000DBB21370D9E70C4A1378DBB2002BD4D10E
:1004E00008490B701470D0E7074B1B78002BCCD059
:1004F000064B1A78002AC8D11C70C6E770BDC046EA
:10050000B0F3FF1FACF3FF1F18F4FF1FF0F2FF1F43
:10051000A4F3FF1F70B500241E4B1B789C4233DAF6
:100520001D4A135DDBB2042B04D0052B19D0023415
:10053000E4B2F1E7631CD55C00F06EFBEDB228007D
:1005400004F0CEFB154903F0AFFE011CFE20800530
:1005500004F0BAF9011C124802F0BEF800F072FB78
:10056000E5E7631CD55C00F057FBEDB2280004F012
:10057000B7FB0A4903F098FE011CFE20800504F039
:10058000A3F9011C0748E7E70023074A1370074A4D
:10059000137070BDACF3FF1FA4F3FF1F0000C8422F
:1005A0000CF4FF1FE4F2FF1F18F4FF1FF0F2FF1F0F
:1005B000C36810B50400002B01D09B689847200049
:1005C00010BD000070B50600084B0C360400036037
:1005D000002E08D005002C35B54204D0103D28006F
:1005E000FFF7E6FFF8E7200070BDC046FC7600008C
:1005F00010B50400FFF7E6FF200003F0AAFA200080
:1006000010BD000010B50400074B0360074B0363E7
:10061000443003F0BFFB2000303002F05FFE2000CA
:10062000FFF7D0FF200010BDC4750000E475000086
:1006300008B4024B9C46303808BC604705060000F1
:10064000002230B5174B85B01A70174B174D184C58
:100650000093184B694628002270039303F006F8B4
:100660006846FFF7A5FF1449144802F05DFE962185
:100670002800890102F090FF00F0CEFA10491148DD
:1006800002F084F800F0DEFA00F0C6FA0C490E48D9
:1006900002F07CF800F0D6FA2378002BFCD0FFF7AC
:1006A00039FFF9E718F4FF1F85040000B0F3FF1FBE
:1006B000F0F2FF1FE8710000F4710000F4F2FF1F78
:1006C00017B7D1380CF4FF1FE4F2FF1F10B5040078
:1006D000FFF798FF200003F03CFA200010BD08B49B
:1006E000024B9C46303808BC6047C046CD0600002F
:1006F000962330B51B4C85B09B0100930422002348
:100700000821200002F08EFC174D18492A00200015
:1007100003F0EEF900F080FA1549164802F046F8A9
:1007200000F090FA00F078FA1349144802F03EF80D
:1007300000F088FA00230393C0239B010293104B1F
:10074000104C0193104B114A00931149114B20009A
:1007500000F094F82A001049200003F0C9F905B010
:1007600030BDC046B0F3FF1FC0F0FF1F05060000FC
:10077000481000000CF4FF1F4C100000E4F2FF1FB3
:1007800008300000F4F2FF1F0C3000001C300000A5
:1007900018300000043000009D07000010B5040070
:1007A000044B0360443002F057FC200002F096FD39
:1007B000200010BD0C72000010B50400FFF7EEFF22
:1007C000200003F0C6F9200010BD10B50368DB69F6
:1007D000984710BD10B503685B69984710BD10B508
:1007E00003689B6A984710BD7047704701204042DC
:1007F00070470000F8B5060004000F00114D4436A4
:100800000911300002F006FD281C03F021F8E36B0B
:10081000226B281C1A6003F01BF8A36B226B3900B3
:100820001A60300002F0F6FC281C03F011F8E36BAC
:10083000226B281C1A6003F00BF8A36B226B1A6062
:10084000F8BDC046ACC5273810B5436A82691A6046
:10085000FFF7D0FF10BD000010B504000121FFF725
:10086000F3FF054802F0F4FF22000023A832AC3465
:100870001360236010BDC04645F5D63AF0B50400BC
:1008800025000F00160095B00F931AAB00229B5E57
:10089000002110931BAB00229B5E143511931CABFF
:1008A00000229B5E12931DAB1B78139302F0F6FCA3
:1008B000304B1822083323600021280004F080FE0A
:1008C00028003900183500F024F9182200212800EA
:1008D00004F076FE2800310000F01BF9012320000F
:1008E0005B420C930B930A93099308930793069327
:1008F00005930493039302930193129B109A009320
:100900000F99119B443002F0D5FB4C216A4623001D
:1009100052181278A4331A70A36B226B16481A600F
:10092000A269636A03251A6002F092FF0321200086
:10093000FFF760FF013D114802F08AFF002DF5D15D
:1009400002212000FFF756FF0D4802F081FF200032
:100950002821FFF779FF20000C21FFF775FF062102
:100960002000FFF771FF2000FFF776FF200015B091
:10097000F0BDC046047200008FC2753C45F5D63A02
:10098000ACC5273810B5036A82691A60FFF732FFD9
:1009900010BD00B5A4300378012B11D0032B14D166
:1009A000032A0DD8100003F0ADFA020507098031C3
:1009B000080000BDC031FBE79431F9E7D431F7E717
:1009C0002820504380304018F3E70232920150183B
:1009D000EFE770B51D000400FFF7DBFF010020000A
:1009E000FFF732FF29002000FFF7CCFF70BDA430D5
:1009F00003781020023B012B00D804307047A4304C
:100A000003780420032B00D002387047F7B50600A6
:100A1000050004000F00A836AC350A290ED10023CA
:100A200033602B6820005E1C2E60FFF7E8FF8642D3
:100A300002DB0023AC3423603800FEBD0B002A68C3
:100A40003168FFF7C6FF336820000133336001933C
:100A5000FFF7CDFF019B8342E1DAEDE70748084A43
:100A600010B5121A002104F0ABFD02F0FAFF04F0F9
:100A7000DDFC02F0FDFF03F03DF8C046C8F2FF1FA9
:100A8000640E002010B50123022802DD02F09EFF53
:100A90000300180010BD10B5012003F02BF810B5AD
:100AA000FFF7F9FF70B50D000400160001F052FCCD
:100AB0006B1C07D00021200001F06CFC31002000ED
:100AC00001F062FC70BD70B5436804000D00002A9F
:100AD0000AD0C26813602000012101F05BFC2900EC
:100AE000200001F051FC70BD0269F3E710B502224D
:100AF000FFF7D8FF10BD70B50D000400160001F01F
:100B000029FC6B1C04D0320000212000FFF7DBFF22
:100B100070BD10B50022FFF7EEFF10BD10B5024802
:100B200000F004F810BDC04654720000036870B5B0
:100B3000DB680400984763685A682368002A02D17A
:100B40009B68984770BD5B681568984763682D1A65
:100B50005A68002D07DC916859601B68002BEAD0A9
:100B600050689847E7E7236810681B699847E9E7EA
:100B700010B50400431C0CD110BD9C4208D12000CC
:100B8000896801F009FF0021200001F025FFF3E74B
:100B90000C3100228B5E5A1CEFD1024800F096F80F
:100BA000EAE7C046A172000010B5884208D0431C95
:100BB00006D04B1C06D0044800F088F801214942B9
:100BC000080010BD0100FBE77072000000228B5E80
:100BD0005A1C01D1180002E0834201D148687047D5
:100BE0000C31F3E710B50400431C07D0FFF7EEFF0C
:100BF0000400431C02D1024800F068F8200010BD38
:100C00008172000010B500F041F810BDEFF31083C1
:100C1000012098437047000010B5FFF7F7FF72B648
:100C2000064A1368002B04D101335840044BC0B26C
:100C30001870136813680133136010BD28F4FF1F88
:100C400024F4FF1F10B5094C2368002B0CD0FFF7CC
:100C5000DDFF2368013B23602368002B04D1044B94
:100C60001B78002B00D162B610BDC04628F4FF1FD0
:100C700024F4FF1F30B585B06D461824201C291CB4
:100C8000ABBE041C200005B030BD0000014B18684D
:100C90007047C046C4F0FF1F10B588B0FFF7BCFF17
:100CA000094902A8FFF735FF9624039A059B200007
:100CB0001A60019202F0D8FD039A069B20001A6088
:100CC000019202F0D1FDF0E7481000000FB40120BE
:100CD00010B502F00FFF10B501F06CFB10BD000065
:100CE00010B5024B1B689847FBE7C046C8F0FF1FD2
:100CF00010B50C4800F0E4FD02000B4B0B481A60E5
:100D000000F0DEFD02000A4B0A481A6000F0D8FD30
:100D1000094B186004F08AFB0021002002F0A8FEB5
:100D200010BDC04600730000CC080020FC7200001B
:100D300034F4FF1FF87200002CF4FF1F10B5FFF70A
:100D4000CFFF10BD10B5040000F00CFD2100020023
:100D50000148FFF7BBFF10BDC072000010B502F0E4
:100D6000E9FF10BD80220A490A4B10B55B1A9200B8
:100D70001800934200D91000074A1B1A074C136051
:100D8000CB18074A2360074B1060196010BDC0469E
:100D9000680E002000300020040600203CF4FF1FF5
:100DA00038F4FF1F0806002000F082FEFFF7DAFF8C
:100DB0000348002100F016FE00F04CFCFEE70000A6
:100DC000CCF0FF1F012110B5024B4942186800F01A
:100DD00099FD10BD34F4FF1F10B5024B186800F0E8
:100DE000BBFD10BD34F4FF1F027830B5013A8C789A
:100DF0004368D2B2002B02D09D78A54208D24B6046
:100E00004160022A07D8002B00D09960886030BD6D
:100E100018005B68EEE700238B60F8E7436810B5C5
:100E200004785968013C41600022022C06D89142A6
:100E300001D088605A609A60180010BD5A60FBE7C4
:100E4000034B5A6842600022586082607047C04677
:100E5000C00D0020124A10B5D368002B13D0938A1E
:100E6000D4688B420DD3C460D060C4680261002C8A
:100E700000D020615B1A9BB28382918ACB1A938245
:100E800008E0002C07D10024CB1AC460D0600261B6
:100E90009382848210BDA28A9B182200E0E7C0469C
:100EA000D80D002070B5194DEB68002B09D0012634
:100EB000AB8A013BAB82AA8A002A02D1EC68002CE3
:100EC00000D170BDA368002B08D0616859606168CB
:100ED000002901D08B6062600023A36021000C48D0
:100EE000FFF782FFA38AAB826378042B04D1094BFE
:100EF000E28A1B689B18A3820022E3686670EB609D
:100F0000934201D01D61E2602261D4E7D80D002038
:100F1000C00D0020540E00208368002B06D04268CC
:100F20005A604268002A00D093607047044B5A68A8
:100F3000904202D142685A60F7E7131EF7D1F4E7F6
:100F4000C00D002070B584680500002C05D14378E1
:100F5000012B0CD1064C03E0A4682378002BFBD0B6
:100F60002800FFF7D9FF29002000FFF73DFF70BDE3
:100F7000C00D0020036910B5002B0DD0C268DA60E7
:100F8000C268002A09D0998A848A09199982136152
:100F90000023C3600023036110BD9A82FAE70000BA
:100FA00070B5114AD478EFF31086EFF3108372B660
:100FB00093789C4211D90133937013785D1CAC4235
:100FC00000D100251570002E00D162B69C4206D9D2
:100FD000DB00D3185860996070BD002EF5D0022058
:100FE000FFF7B0FEF8E7C04644080020F7B5836A73
:100FF00001919B0802D1204B1B889B08066B9C002B
:101000003419620700D5043C8027221F7F04176033
:101010002700019A2500083F3A600022403D290040
:101020009446624604C18F42FBD12200C769203A30
:101030001760019AC56242630F4A12680192D2009A
:1010400012D5112B10D9103B5B08DB005B421A0054
:10105000383AA4182A000949A24208D1EB180433EF
:101060009E4201D2054A1A60054B3360F7BD083A2B
:1010700051601160F0E7C04608730000CCCCCCCCC6
:10108000A52E5AE2C36A19627047C36A19625A628E
:1010900070470000064B1B78002B04D18022054BC3
:1010A00052051A6070470122034B1A70FAE7C046D6
:1010B0009004002004ED00E0910400201B4B70B56B
:1010C000186801234370FFF7BBFE194C6578A378BD
:1010D000002B06D165701748FFF7A0FE00F0BAFD9F
:1010E00070BDEB00E31858680278002A14D19968A3
:1010F00089B200F0C7F9E37801359D4200D100259F
:10110000EFF31083EFF3108272B6A278013AA27067
:10111000002BDCD162B6DAE7012A03D1996800F02E
:101120003FF9E8E701F0F2F8E5E7C0460C0E0020D1
:1011300044080020C00D0020094B01201A68094B0B
:1011400040421A600022084B1A60084B07321A60AE
:10115000FF23074A1B0611680B4313607047C04604
:101160002073000014E000E018E000E010E000E070
:1011700020ED00E0704700000B4B10B5186801230C
:101180004370FFF75DFE00F0B1F9084A13680133C0
:101190001360FFF787FE00F0DFFC0548FFF73EFE17
:1011A00000F058FD10BDC0460C0E0020540E00206B
:1011B000C00D0020074B10B51A68136BD26A93421A
:1011C00003D8054A1B68934202D00120FFF7BAFDFD
:1011D00010BDC0460C0E0020A52E5AE230B503000B
:1011E000002A18DA072010245200520807328243DE
:1011F0000120002A16D015198D4213D859181C1930
:10120000504259601C609A600918A318994207D38C
:101210001B501C00F9E70320033282430C24E7E74C
:101220000020206030BDEFF3108272B601231A4017
:101230000368002B01D019680160002A00D162B652
:10124000180070470300012099420CD35A6891425C
:1012500009D2EFF3108272B6186808601960002096
:10126000D30700D462B670470123037000231039FE
:101270008908437083704360038143818381C18106
:101280007047000070B5150082890400002A3AD02A
:101290004389181D8000005901330860E1899BB221
:1012A0006381994201D1002363816368002B1ED0C2
:1012B0006378022B1BD12000FFF7B0FD0500002151
:1012C000FFF7E0FE2389E9691A1D920011510133ED
:1012D000E2899BB223819A4201D100232381280015
:1012E000FFF748FE280000F0D3FC002070BDEFF3AC
:1012F0001083EFF3108172B60020013AA28183427D
:10130000F4D162B6F2E70120002DEFD06268094BFC
:10131000002A09D019682000FFF766FD280008217F
:1013200000F0D6FC0120E1E71B6863605A609C6016
:101330006070F3E70C0E0020C3898089181A70478B
:1013400010B5FFF72DFEFFF7A5FE10BD10B5040088
:1013500083890020834222D0638904339B001B5978
:101360000B606378022B05D101002000FFF718FE07
:10137000FFF790FEEFF31083EFF3108272B6A289AD
:10138000013AA281002B00D162B66389E289013360
:101390009BB2638104209A4201D10023638110BD76
:1013A000436870B504000D00002B4AD04678022E29
:1013B0001FD0032E0AD0012E42D1FFF72FFD0400CB
:1013C0002A001021FFF761FE66700DE00800FFF7AC
:1013D0002AFF051E34D02000FFF720FD290004005D
:1013E000FFF750FE012363702000FFF7C3FD2100CB
:1013F00023E0FFF713FD05000021FFF743FE2389DB
:10140000E9691A1D92001151EFF31082EFF3108178
:1014100072B6A1890131A181002A00D162B60133DF
:10142000E2899BB223819A4201D1002323810123C7
:1014300028006B70FFF79EFD29001148FFF7D4FCD0
:1014400070BD8289C089824215D22389191D890005
:101450000D51EFF31081EFF3108572B60132A281C6
:10146000002900D162B601339BB2984201D023819A
:10147000E6E70023FBE70320FFF764FCE0E7C04654
:10148000C00D002010B5038B42781943040001837E
:10149000438B062A14D11A000A4093420FD1994374
:1014A00021832000FFF766FD0123082120006370DF
:1014B000628BFFF7EAFD21000548FFF795FC10BDA0
:1014C000052AFCD11A000A40F9D04283E7E7C0465A
:1014D000C00D00200022034B1A60034A1268DA8014
:1014E0007047C046F80D00200473000010B50D4B86
:1014F0000D4C186862680D49904205D01A60DA8870
:101500000868013A82189A8098880A88904208D11F
:10151000002220001A60FFF781FC01002000FFF785
:1015200063FC10BDF80D0020C00D0020540E0020FB
:10153000002230B50B4C2368002B0AD10360816078
:10154000002B02D09D68691A9960002A08D01060AB
:1015500030BD9D68A942F1D31A00491B1B68EBE717
:101560002060F5E7080E0020002313B50200984222
:1015700015D0431C15D00C4C0C49230088420ED8C2
:10158000FA200B4B800050431B680193013BC018AD
:10159000019902F0C1FC2300A04200D883B21800D8
:1015A00016BD044BFBE7C046FEFF000000093D00EE
:1015B000BC720000FFFF0000002806D0830705D1A1
:1015C00003785A4253415B42184070470020FCE7C1
:1015D000B0B50F4D00AF2878002815D10D4C236809
:1015E0000533D97F00F096FB2368DA78FF2A03D110
:1015F000DA6A203282F309886268002A00D10CC4BA
:1016000000F03CFD01232B70BD460020B0BDC0465C
:10161000050E00200C0E0020014B18787047C046C4
:10162000050E002090B5EFF31084002C07D1EFF3E6
:101630000584002C03D1EFF31484E40702D4034B98
:10164000187890BD024FBC4600DFFAE7050E002077
:1016500019160000F0B589B000AFEFF310838225B2
:10166000002B3AD1EFF30583002B36D1FFF7DAFFD9
:10167000002807D11B4C2468002C03D06468002C80
:1016800000D0A047EFF3148403263440022C18D076
:10169000B4421DD0FF25012C1FD020243C1984F317
:1016A0000988114C2478E4070FD5022484F31488A8
:1016B000BFF34F8FBFF36F8F0C4FBC4600DF0500A9
:1016C0000BE0094C2478E407F6D486F31488EFE79E
:1016D000054CFF252478E407EED52800BD4609B067
:1016E000F0BDC046F40D0020EA720000D1150000E4
:1016F00070B50B001500002802D10024200070BD39
:101700000668002EF9D00422845EE21C92B2062AFA
:10171000F3D80022C168914200D002690434090262
:101720002143300000F036FB0028E6D00A4B013898
:101730008000C458094AE36A5A63094B1B68002BAE
:1017400007D09B68002B04D0E07829009847E0631D
:10175000D4E7E563D2E7C046280800202919000035
:10176000F40D002010B500F0CDFA031E03D00138AF
:10177000024B8000C358180010BDC0462808002046
:1017800010B5FFF719FF8023041E0FD0084B1B680C
:10179000002B04D0DB68002B01D0C06B9847E078A9
:1017A00000F04AFB8123FF2800D00023180010BD61
:1017B000F40D0020002310B5984204D0FFF7D4FEAA
:1017C00000F09EFD4023180010BD0000B0B50500DC
:1017D000EFF310848220002C07D1EFF30584002C56
:1017E00003D12800014FBC4600DFB0BDB517000093
:1017F000830706D1002807D0436901691B681800D8
:10180000704700231900FAE70300FBE790B50400D6
:101810000800034FBC4600DF20606160200090BDDF
:10182000F117000010B5031E0AD00468231E07D06C
:10183000002322789A4203D1200000F055FC2300B7
:10184000180010BD70B5032405000E00044080236D
:10185000002C12D1002810D00278032A0DD10800E4
:10186000FFF782FE0100280000F016FD230001288A
:1018700003D1C133002E00D1403B180070BD10B51C
:101880000324802304400AD1002808D00278032AC8
:1018900005D100F08DFC8123FF2800D02300180023
:1018A00010BD10B503248023044007D1002805D0C3
:1018B0000278032A02D100F01FFC2300180010BD9B
:1018C000F8B50500EFF31086002086420FD1EFF344
:1018D00005843000002C0AD1EFF31480C00707D430
:1018E00006480078002803D12800FFF79BFFF8BDC9
:1018F0002800034FBC4600DFF9E7C046050E002074
:1019000025180000B0B50500EFF310848220002CEC
:1019100007D1EFF30584002C03D12800014FBC460A
:1019200000DFB0BD4518000001210848B0B54942AC
:101930000068FFF7E7FF064FBC4600DF0400FFF733
:101940000DFA2000034FBC4600DFFEE7000E00202A
:101950006517000081170000B0B50500EFF3108493
:101960008220002C07D1EFF30584002C03D128003E
:10197000014FBC4600DFB0BD7F180000F7B5060080
:1019800000910192EFF310820024A24210D1EFF3F4
:1019900005831400002B0BD1EFF31483DB0709D46C
:1019A0000D4B1B78002B05D1019AFFF7A1FE040017
:1019B0002000FEBD0121094D49422868FFF7A2FF22
:1019C00030000099019A064FBC4600DF04002868E9
:1019D000FFF7C2FFECE7C046050E0020000E002016
:1019E000F116000010B50022FFF7C8FF10BD00007F
:1019F000B0B50500EFF310848220002C07D1EFF37F
:101A00000584002C03D12800014FBC4600DFB0BD87
:101A1000A318000010B50300041E0FD001680B1EB0
:101A20000CD04068031E09D0002302789A4205D1E9
:101A30000431890089B2FFF717FC6368180010BDF4
:101A400070B5124D2B78002B01D100F09BFAFF22CC
:101A50000F4B2C781B689A70002C11D121000D4877
:101A6000FFF7D8FF0C4B2200186021000B48FFF74E
:101A70003FFE0B4B18600B48FFF722FF0A4B186024
:101A8000012300202B70094B187070BD040E00203C
:101A90000C0E0020F0720000C80800200C7300003B
:101AA000BC0D002024730000000E0020050E002055
:101AB000B0B5EFF310858224002D0AD1EFF3058530
:101AC000002D06D1EFF31484E40704D4FFF7B8FF28
:101AD00004002000B0BD024FBC4600DFF8E7000064
:101AE000411A000030B5040085B00D00002817D061
:101AF0000378012B14D10800FFF736FD02A902007C
:101B00002000FFF7BFFB012808D12800451EA8418F
:101B1000800102990022130005B030BD1020F8E7C3
:101B200080200021F6E770B5802304000E00150028
:101B300000280ED0002A0CD10278012A09D1FFF723
:101B4000FBFB8123002804D031002000FFF7F8FBC5
:101B50002B00180070BD0000F8B5124E3468002C40
:101B600006D00127A368013BA360A268002A00D029
:101B7000F8BD0D4B2568210018683560FFF7D3FFCD
:101B8000002802D00420FFF7DDF86379012B07D18C
:101B9000E1682000FFF7CCFC002DE9D02C00E4E741
:101BA0002771F9E7080E0020C80800207FB504005F
:101BB0001600081E01D0002A04D0802323602000D4
:101BC00004B070BD0B78012BF7D102A901ADFFF76E
:101BD000BDFB042804D00196230007CD07C3EEE720
:101BE00010230193F8E70000B0B504001500EFF3EF
:101BF0001080002803D1EFF30580002805D02A00CB
:101C00002000FFF7D3FF2000B0BD08001100034FF4
:101C1000BC4600DF20606160A260F4E7E51A0000C6
:101C200010B5012486B06442094B2200196803A84C
:101C3000FFF7DAFF039B102BF6D1049901A8FFF7F9
:101C4000E5FD019B002BEFD002989847ECE7C046DA
:101C5000C8080020074B10B5586002234370064B9C
:101C60001B68002B04D01B69002B01D0C06B984768
:101C700010BDC0460C0E0020F40D002010B5034826
:101C8000FFF7CCF8FFF7E6FF10BDC046C00D0020FF
:101C900070B5041E02D1FFF7F1FF70BD0A4EA278A5
:101CA0003068012583789A4207D9FFF7C9F833686D
:101CB00020005D70FFF7CEFFEFE76570210003485D
:101CC000FFF792F8E9E7C0460C0E0020C00D002097
:101CD00070B50D0000280ED0074B084C984203D079
:101CE00001002068FFF7B6F8236805485D70FFF72C
:101CF00095F8FFF7AFFF70BDFFFF00000C0E00204E
:101D0000C00D0020024B1B68181E00D0D878704709
:101D10000C0E002010B5002816D11A4B1B689970C4
:101D20000533D977184843689B788B4202D8002244
:101D3000100010BD134C2168FFF756F801222368EC
:101D40005A70FFF79BFFF2E7104BFF221B88984267
:101D5000EED8431E0E489B001C58002CE8D0631D93
:101D6000A170D977074B1B689C42DBD02000FFF79E
:101D7000E9F86378012BDAD10348FFF74FF8FFF752
:101D800087FFD4E70C0E0020C00D0020EC7200008D
:101D900028080020F7B51F00CBB215005A42534166
:101DA00000902148CE18FFF73EFA041E02D100250C
:101DB0002800FEBD056301251C4B320A198882628A
:101DC0008D42F4D86B1E01931948AB00043BC358F5
:101DD000002B01D00135F3E70121F6B26170611DDE
:101DE000E570E761A7632370A670CE77A11D6360DD
:101DF000A360E36023612362A382E382238363837E
:101E0000CB77002A03D10B48FFF70DFA206320009F
:101E10000099FFF7EBF86B1E054A9B002000D45099
:101E2000FFF736FFC4E7C046F00B0020EC7200005D
:101E30002808002018060020F7B54C4D002803D0D4
:101E40002B68DB78984240D100232C68012763700F
:101E500001F0ABFFE062FFF7ADF92B681C6A002CC4
:101E600013D12A684249D3784248013B9B005C5019
:101E7000116BFFF7E7F929683F480C63FFF7E2F9B8
:101E80002C60FFF7FBFE2000FEBD6368002B16D020
:101E90002000FEF7C3FF06000021FFF7F3F8300033
:101EA000FFF768F8777031003448FEF79DFFE3686C
:101EB000326A6780A660E26034621C00CFE7E268A5
:101EC0006380A360E3601400C9E72D4BFF241B88E7
:101ED0009842D8D8013883000193019A244BD658F0
:101EE000002ED0D03000FFF717F83000FFF742F88F
:101EF000346A002C17D11E4B019A316B1D489C503F
:101F0000FFF7A0F9310034631B48FFF79BF91B482A
:101F1000296843689A788B789A42B4D901234B7028
:101F2000FEF762FFADE76368002B18D02000FEF7D4
:101F300075FF07000021FFF7A5F83800FFF71AF832
:101F4000012339007B700D48FEF74EFF0122E36844
:101F500062803A6AA760E2603C621C00C9E7E268FE
:101F60006380A360E3601400C3E7C0460C0E00204A
:101F70002808002018060020F00B0020C00D0020CB
:101F8000EC7200002D4B70B5198800231C002C4802
:101F90008B424ED32B4B402219882B48FFF71EF95A
:101FA00080222A4B12061B88294E1A43294B3000E7
:101FB0001968FFF713F9284B08221988274B0025C9
:101FC0001868FFF70BF9FF23254C3000E370FE3B48
:101FD0006370631DDD77A31DDD77A5622570A57095
:101FE0006560A560E56025612562A582E58225839F
:101FF0006583FFF718F91B4920632000FEF7F6FF01
:102000000422194B20001A705D60184B1A70DD60B5
:102010001D619D82164B1C6002236370FFF71AFE40
:10202000144A154B12781D705D70DA70FFF752FA82
:1020300070BD9A00121814600133A9E7EC72000019
:1020400028080020B8720000F00B00200873000080
:1020500018060020B4720000BA72000030F4FF1FAE
:10206000140E00203D0D0000C00D0020D80D0020F2
:102070000C0E0020E972000044080020FF22154BDE
:102080001204196810B50A431A601B68124A5B02F1
:1020900011689B0E9B060B431360FFF74DF80F4929
:1020A0000860002815DB83080D4A9B009B18182246
:1020B000C0001040E73282401C6822431A600A6860
:1020C000084953099B005B181F210A401E399140A3
:1020D000196010BD20ED00E01CED00E0F00D0020C7
:1020E00000E400E000E100E00323037000234380EC
:1020F00043608360C3607047F8B543880400002BD9
:1021000014D08068036A9C422BD1E3680362431DAC
:10211000DB7F026A002A2CD182789A4206D0837033
:10212000214B1B68984201D0FEF70CFF0127656820
:102130001E4E002D28D17368002B0ED01A4F9A78AE
:1021400039688B789A4208D93000FEF74DFE01229B
:102150003B6828005A70FFF79BFD00202070F8BDF7
:102160001300002BD3D0DA689442F9D1E268DA6028
:10217000CDE75168002905D08D78291C9D4200D2F9
:10218000191CCBB2D268C5E72000FEF747FE050058
:102190000021FEF777FF2800FEF7ECFE6F702900A4
:1021A0003000FEF721FEC2E70C0E0020C00D00201B
:1021B000F7B543880500FF20002B0BD0344AA968EF
:1021C00012680192914205D1013B9BB26B80002BBA
:1021D00001D00020FEBD0B6A9D4235D1EB680B6239
:1021E0004B1DDB7F0C6A002C36D18B706A68294F3F
:1021F000002A3CD02800FEF711FE06002100FEF761
:1022000041FF3000FEF7B6FE01236B80336AAE60FB
:10221000EB601F4B356219687B688A789B783000C9
:102220009A420DD23800FEF7DFFD38003100FEF78C
:10223000DBFD0122164B20001B685A7001237370CE
:10224000FFF726FDC5E71300002BC9D0DA689542D9
:10225000F9D1EA68DA60C3E76268002A05D09078AD
:10226000021C984200D21A1CD3B2E468BBE77A6819
:1022700092789A42ADD93800FEF7B6FD0122044BA0
:1022800020001B685A70FFF703FD2000A2E7C0463C
:102290000C0E0020C00D002070B5428804000E0016
:1022A000164D002A08D12B68196A8360C160186234
:1022B00000200132628070BD836829688B42F7D0AC
:1022C0000120002EF7D08A789978914203D29A7033
:1022D0001800FEF737FE6268002A09D0296820003E
:1022E000FEF782FD30000921FFF7F2FC0120E2E752
:1022F0002B6863605A609C60F4E7C0460C0E0020B7
:1023000010B50321FFF7E4FC10BD0000436810B5D1
:10231000002B0ED0FEF782FD0400FEF72BFE0121FC
:1023200020006170FEF7AEFE21000448FEF75CFD60
:1023300010BD438801334380FAE7C046C00D00203A
:1023400010B50400012100F027FB01206406E40E13
:10235000A04010BD70B505000C0029804B1C0FD0AB
:102360000800FFF7EDFF074B240BE418A401231D21
:10237000EB6004332B611434083368606B61AC602C
:1023800070BDC046C03FE00310B50023C05E00F042
:1023900023FB10BD002902D0012906D070478268B6
:1023A000416813688B431360F8E7826841681368DB
:1023B0000B43F8E72A22034B1A700022024B1A61E2
:1023C00030BF704700E0074000ED00E00022064B00
:1023D0001A609860196840320A431A60012219682D
:1023E0000A431A607047C0460000044080230D4A2B
:1023F00070B511680C4D0B4313602C68002C05D090
:102400000A48013CFFF7E2FF2C6070BD084D2888A8
:10241000002803D0FFF7DAFF2C80F6E7FEF77EFBFB
:10242000F3E7C04600000440A8040020FFFF0000BE
:10243000AC040020F7B5684B1A680192002A00D05E
:102440008FE001241C608023644E654A1B04B15850
:10245000644D0B43B350019A634B644F1A600123E0
:102460005B426B610533EB61EB692343EB61604BCE
:102470003868F1580723090C1940091901F04CFD7F
:102480005C4B5D49C01801F047FD5C4A013868604B
:10249000EC60B3585A4D2343B350019B1C202B6072
:1024A000584900F06FFD8022574B52051A603F22B9
:1024B0004F4B3F68F058554E000F33780019474393
:1024C0009343802B33D03378934364D173795B0685
:1024D00053D4B379DB065ED43378383ADB087178AD
:1024E000134029329C40114203D0FF2364015B0159
:1024F0001C401F22F3789343602B35D007D8202B44
:102500000ED0402B2ED0002B35D1A02106E0A02BE1
:102510002DD0C02B2DD0802B2DD1B721890001E0EB
:10252000A021C9002000784301F0F6FC0700002F2D
:1025300031D03149380001F075FD0C1E2BD12E49E8
:10254000380001F0E9FC0723012842D021000123D3
:10255000400801281AD17823C9001940753B194356
:102560006960F7BDF021DCE7A0210901DAE7B721B6
:10257000D7E72749D6E72749D4E71F233079717970
:1025800018400130194078431831CDE7184202D184
:1025900001314008DDE70223327813433370012311
:1025A00072781343737000230E226B60337A1340EA
:1025B0000AD0022B0CD0337A934333720423327A3D
:1025C0001A4332726A6801E008236A68134300E024
:1025D0006B686B60C5E7C046A4040020007004402F
:1025E0003C100000FC70034000700340E0F0FF1F4F
:1025F0004410000020A1070040420F0038100000E6
:1026000000000440ED23000000E100E0004006402F
:1026100095080000710B0000054B10B51B68002BDE
:1026200001D1FFF707FF034B9869C04310BDC046B7
:10263000A4040020FC7003404021024A13688B432D
:1026400013607047000004407047000070B504003C
:10265000FFF7E2FF201A002800DC0120084D094E98
:10266000041480B22C603080002C05D00648013C58
:10267000FFF7ACFE2C6070BDFFF7A8FE3480FAE7D0
:10268000A8040020AC040020FFFF00000C4A0D4B02
:1026900010B598580C4A000F1268013050430B4A8D
:1026A00051790B4A490604D499580A4C2140995053
:1026B00010BD80219C584902214399504008F7E7FA
:1026C0004410000000700440E0F0FF1F004006408E
:1026D00004100000FFFFFEFF70B50C1C0500002178
:1026E000201C01F0A1FD002818D1FE21201C890525
:1026F00001F0AEFD002801D0FE24A4052B68AE68D1
:102700001868013002F0ECFA211C01F0BDFF01F065
:10271000B3FD00226B6830601A6070BD0024EDE7E5
:10272000030082681B6870B510681C6802F0D8FA54
:10273000051C601C02F0D4FA011C281C01F0B4FD39
:10274000FE218905041C01F083FD002801D0FE2430
:10275000A405201C70BD0000F8B50F000400FFF7B1
:10276000DFFF051C380002F06BFA074B266819687A
:1027700001F08AFF01F080FD01383060291C200043
:10278000FFF7AAFFF8BDC046B004002010B5040052
:10279000081C054901F078FF02F032FA0100200020
:1027A000FFF7DAFF10BDC04600247449F0B585B0CC
:1027B000009106006A490098FEF714FA6B460190F2
:1027C0009B88684D0393674B674C18783F23984369
:1027D0000290664F67D1FFF759FF002863D080232E
:1027E000E2595B0413433F22E3512B780298934351
:1027F00001D1FFF74BFF02F073FA5D4901F054FD80
:102800000025071CFE21381C890501F021FD002848
:1028100008D0FC21381C890501F036FF0135071C62
:10282000072DEFD1534B01211F60039B524F1B0A11
:1028300002936B461A79E3599C46009B180B0B00D8
:102840000930834018006346184318239C46029BB6
:10285000E0519C44634699404848494B27580F43F0
:1028600002992750CB18082128200D43511C023211
:102870001B03C900D20059189A181D604860B26045
:102880001A00043308323260736030003D49FFF7AC
:1028900063FF30000021FFF71FFF31490098FEF76A
:1028A00067F905B0F0BD8023E2599B0413433F2232
:1028B000E351354BE058354B000F1B68013058434E
:1028C0002B789343802B96D02B78934344D16B790C
:1028D0000132134037D1AA79D2063FD401223021E8
:1028E0002B786F789B065B0F9A400F4203D0FF2333
:1028F00052015B011A401F21EB788B43602B19D0EA
:1029000007D8202B0ED0402B12D0002B19D1A0219C
:1029100006E0A02B11D0C02B11D0802B11D1B721F4
:10292000890001E0A021C900504301F0F5FA62E7F7
:10293000F021F8E7A0210901F6E7B721F3E71449F0
:10294000F2E71449F0E71F222B796979134001332C
:10295000114058431831E8E700204CE718004AE7D7
:10296000287300000040064000700440041000007E
:1029700000247449B0040020381000003C1000000E
:1029800038000400204E000044100000E0F0FF1F5B
:1029900095080000710B0000030BF0B51F00012229
:1029A0000937BA40084D094C09022E5932432A51C1
:1029B000074A9B187C221B03104018180368054A1D
:1029C000134019430160F0BD00700440381000004E
:1029D00049000400FFF8FFFF0322034BC0180368FF
:1029E0009343194301607047009004403F21002049
:1029F0000E4A10B513788B4383420FD10C490D4B0F
:102A000058580D49000F09680130484351790B4A65
:102A1000490604D499580A4C2140995010BD802190
:102A20009C584902214399504008F7E7004006406E
:102A30004410000000700440E0F0FF1F041000008C
:102A4000FFFFFEFF70B50A4D8C000600605900289C
:102A50000DD073B2002B03DA064B01211B68984797
:102A6000B30604D5034B00211B682859984770BD55
:102A7000B8040020B404002010B5034B01211879DC
:102A8000C0B2FFF7DFFF10BD00B0064010B5034B2A
:102A900002211879C0B2FFF7D5FF10BD00C0064073
:102AA00010B5074C00212079C0B2FFF7CBFF0823F7
:102AB00022791A4202D022791343237110BDC046F5
:102AC00000A00640F7B50D000C2103680600DC7875
:102AD0000C400194DA788A43DA70414A934200D07C
:102AE00073E0FFF783FF002814D0FFF77FFF290171
:102AF00001F012FA1F253268030A11782B40A9430E
:102B00000B431370C0B253785070D378019C1C43B0
:102B1000D470F7BD334B344AD758344B3F0F1A6843
:102B20003F2301375743324A9C461178994313009B
:102B3000802953D064461178A143D8D151794906F0
:102B40003AD49279D206D2D419785A788906944622
:102B50000122490F8A4030206146014203D0FF2103
:102B6000520149010A401F21DB788B43602B1AD0A8
:102B700007D8202B0ED0402B13D0002B1AD1A02128
:102B800006E0A02B12D0C02B12D0802B12D1B7217F
:102B9000890001E0A021C9007A43100001F0BCF9CE
:102BA000A5E7F021F7E7A0210901F5E7B721F2E752
:102BB0001049F1E71049EFE71F23107951791840C8
:102BC0000130194078431831E8E7064B064AD158DE
:102BD000064B4903490F01311868DFE7380086E7E3
:102BE00000A006404410000000700440E0F0FF1F09
:102BF0000040064095080000710B0000F0B50C275E
:102C00000168C878CE783840BE43CE70012A15D00E
:102C1000002A13D0022A14D064002C43E4B28C7032
:102C200020240A78013BA2430A700A785B0113430F
:102C3000DBB20B70CB781843C870F0BD15001400E0
:102C4000EAE700250124E7E7F8B50E00040049494A
:102C500030001700FDF7C6FF474905003800FDF7B3
:102C6000C1FF01002800FDF79FFF444B05002060D5
:102C7000984200D16CE0424B984200D170E0414B49
:102C8000984210D1FFF7B2FE3F4B404A00285BD07C
:102C900080219858C9040143995080223C49D200B0
:102CA000585802435A500C212368DA788A43DA7064
:102CB0000822D9780A43DA70402219791142FCD0EF
:102CC0000C21DA788A43DA702C4B9D424ED02C4B83
:102CD0009D424DD02B4B9D4201D100236360962134
:102CE00020008901FFF7EEFE0123002208212000C9
:102CF000FFF784FF1F493000FDF73AFF1E493800F7
:102D0000FDF736FF731C08D0082322683000D17805
:102D10000B43D3700221FFF75FFE7B1C08D0042316
:102D200022683800D1780B43D3700221FFF754FE9C
:102D3000144B9D4207D10122164B21001A60164800
:102D4000073202F022FCF8BD802198580905A2E75D
:102D500080230D490E4A1B01885803438B50A2E77C
:102D6000802309490A4A5B018858F6E70123B5E741
:102D70000223B3E750750000E474000000B0064081
:102D800000C0064000A0064000700440041000008F
:102D900034100000C4040020580E0020034B1960BA
:102DA000436803499B005A507047C046B404002052
:102DB000B80400200368274810B5834216D026487F
:102DC000834216D02548834216D10C242448002A79
:102DD0001DD0002913D0012916D00100200000F0D9
:102DE000D1F80123A3401F4A136010BD1E480D24D3
:102DF000EDE71E480E24EAE700200400E7E7202262
:102E0000D9780A43DA70E8E7DA788021F9E700290F
:102E100004D001290BD0002904D00CE02021DA785D
:102E20008A43DA70DB785BB2DB43DB0F07E07F219C
:102E3000DA780A40DA70DA78012352099343002BDA
:102E4000D3D00123A3400A4AD367BFF34F8FBFF308
:102E50006F8FCAE700B0064000C0064000A00640E1
:102E6000A12A000000E100E0792A00008D2A00007C
:102E700004E100E0082203681979114202D01979AF
:102E80000A431A71187920231840704710B50400BE
:102E90002000FFF7EFFF0028FAD02368D879C0B2EE
:102EA00010BD082203681979114202D019790A432A
:102EB0001A7118797F239843704770B505000C008C
:102EC0002800FFF7EEFF0028FAD02B68E4B2DC718F
:102ED00070BD7FB510216846FDF708FE07B000BD44
:102EE000882200201F4B520110B5985080221E49A5
:102EF00092005C5822435A501C491D4A1D4C99505F
:102F00001D4B996C21409964DA6C1F212240DA64D0
:102F100089221A4B1A701A4B653A5A7076321A7017
:102F2000DA780A40DA7001221A7158710F329979F1
:102F30001142FCD10C219A790A40082AFBD10C21BC
:102F400038325A719A790A40082AFBD13832997975
:102F50001142FCD01A220C211A709A790A400C2ACC
:102F6000FBD110BD007004403810000000000110BB
:102F700044100000FFF8FFFE00900440005006409F
:102F8000004006400A4AF0B5936895681C00002D81
:102F90000AD11D00074CC035E61A1F68F7500433EC
:102FA000AB42FAD19460034C103080000151F0BD67
:102FB00000ED00E000F0FF1F10B500F00CFB10BDAD
:102FC00008B4024B9C46303808BC6047B92F00005B
:102FD00010B500F005FB10BD08B4024B9C4630381C
:102FE00008BC6047D12F0000012110B54430494290
:102FF00000F0C6FE10BD000008B4024B9C463038FD
:1030000008BC6047E92F000010B5443000F0BDFE59
:1030100010BD000008B4024B9C46303808BC604725
:103020000930000070B504001D00049B00F0E0FAB8
:1030300020002900303000F031F9064B20001A0042
:103040002833083222602363443000F081FE2000E0
:1030500070BDC046BC75000070B5040006000500D8
:10306000084B4436083308C42068002801D000F01B
:1030700070FD0434B442F7D12800483000F08AFED5
:10308000280070BD2C76000010B50400FFF7E4FFA7
:10309000200000F05EFD200010BD012110B5483079
:1030A000494200F06DFE10BD10B5483000F06DFED5
:1030B00010BD0000F0B597B003931CAB0292002244
:1030C0009B5E050004931DAB00229B5E019105935E
:1030D0001EAB00229B5E06931FAB00229B5E0793F4
:1030E00020AB00229B5E089321AB00229B5E0993DC
:1030F00022AB00229B5E0A9323AB00229B5E0B93C4
:1031000024AB00229B5E0C9325AB0027DF5F26AB30
:1031100000269E5F27AB00229B5E0D9328AB002408
:103120001C5F2C4B08330360483000F011FE6A46E8
:1031300092880EAB1A806A461289DC835A806A46EE
:10314000928900249A806A46128A1F83DA806A462E
:10315000928A5E831A816A46128B6C645A816A462F
:10316000928B9A816A46128CDA816A46928C1A8214
:103170006A46128D5A826A46928D9A826A46128EE9
:10318000DA826A46928E9A8363000EAAD35E002684
:10319000019301330CD0182000F0C0FC070031006F
:1031A000182202F00DFA01993800FDF7B2FC3E003A
:1031B000A300EB185E60019B013304D00123A34000
:1031C0006A6C13436B640134102CDDD1280017B0F6
:1031D000F0BDC0462C760000036870B59B68040003
:1031E0000D000126984700239A00A2185268002A71
:1031F00006D0290019415068314209D0D2681060C8
:103200000133102BF0D123682000DB68984770BD94
:103210001269F4E710B50400FFF7DEFF200010BDCF
:10322000F8B50E00036805009B6B8C1898473300B7
:10323000A34208D05F1C19782B6828001B6C9847A4
:10324000431C06D13C002B682800DB6B9847A01B71
:10325000F8BD3B00ECE7F8B50E00036805009B6B7A
:103260008F1834009847A74208D02B6828005B6C61
:103270009847431C02D020700134F4E72B682800E3
:10328000DB6B9847A01BF8BD0020704700207047FB
:103290007047002070470020704700001FB50400F1
:1032A000002200F07BF80A4B220008332360002341
:1032B0000849236101A803F06DF8074901A801F04E
:1032C000D3FF206100F019FC200004B010BDC046FF
:1032D000947600008C7600009076000010B5040013
:1032E000064B08330360006901F0BCFD044B20006D
:1032F000236000F07BF8200010BDC04694760000EB
:103300004C76000070B5040003689B6B98472069F9
:1033100001F068FE206900F0F5FB0500236820003D
:10332000DB6B9847280070BD0EB477B504000368C6
:1033300007AD40CD9B6B98472069019501F052FE87
:103340003100019A206902F055FB05002368200036
:10335000DB6B984728007EBC08BC03B01847007B95
:1033600070470000036870B50400002B12D10121E2
:10337000094E49423068FEF7C5FA2368002B06D192
:10338000251D002D02D0280000F0E2FC25603068E9
:10339000FEF7E2FA206870BDCC080020104B70B533
:1033A00008330360040000230E4E4360A1600273E3
:1033B00030000D00FFF7D6FF0121494200F0E0FC8C
:1033C000002D0AD0084B1A681C6062603000FFF7BD
:1033D000C9FF00F0DAFC200070BD6560F6E7C0466A
:1033E000E4760000CC040020C8040020144B70B523
:1033F000144D0833036004002800FFF7B3FF0121D8
:10340000494200F0BDFCA368002B05D00E4A1368AA
:103410009C420FD1636813602800FFF7A3FF00F000
:10342000B4FC237B002B02D1200000F097FB20008E
:1034300070BD13005A689442FBD162685A60EBE792
:10344000E4760000CC040020C804002010B504007D
:10345000FFF7CCFF200000F07CFB200010BD000037
:10346000F7B5134D019028000F00FFF77BFF0121F6
:10347000494200F085FC0F4B1C68002C0ED0A6685A
:10348000002E12D03A000199300003F02CF80028E9
:103490000BD1300003F020F8874206D12800FFF757
:1034A00061FF00F072FC2000FEBD6468E5E7C046E5
:1034B000CC040020C804002070B504000D00884230
:1034C0000CD0FDF775F8002C08D0EB68002B03D06A
:1034D0005B68290020009847EB68E360200070BD1E
:1034E000002310B5036043600A7804002F2A0ED130
:1034F0004A789A420BD0481C1900206023681A7839
:103500002F2A06D101332360FFF7AAFF6060200055
:1035100010BD002AF8D0013301312360EEE70068C6
:103520007047436810B5181E05D0FFF718FF013823
:1035300043425841C0B210BD10B50400FFF7F1FF7F
:10354000031E00D06368180010BD436810B5181E34
:1035500004D0FFF704FF43425841C0B210BD10B57C
:103560000400FFF7F2FF031E00D06368180010BDCF
:103570004068431E9841C0B270477047704770471B
:103580000B01013110B5090141188A680C33C318C9
:1035900012681800904710BD70B504000D00036854
:1035A0001B6898472900201DFFF78CFA2368E56205
:1035B0005B682000984770BD70B5040003681B6805
:1035C0009847201DFFF756FC0500236820005B6824
:1035D0009847280070BD10B50430FFF757FC10BDA8
:1035E00010B50C000430FFF768FC200010BD00008F
:1035F000F0B587B00192194A040008320260002237
:10360000174E184DC36242608260826182620F0071
:103610000C3002A905950296FFF74EFF02A8FCF7B1
:10362000C7FF200002A91C3005950296251DFFF753
:1036300043FF02A8FCF7BCFF019A39002800FFF7FE
:1036400003FBE16A2800FFF73DFA28002200064943
:10365000FFF7A4FB200007B0F0BDC046F4760000E1
:103660007B350000E871000081350000F0B50F00E7
:1036700004001500036887B01B689847FDF7CCFA73
:10368000FB6828010193261D002B11D00C30201857
:103690003900FFF711FF012229003000FFF78AFBF4
:1036A000FDF7D0FA236820005B68984707B0F0BDAB
:1036B000064B0C300293064B02A920180593FFF726
:1036C000FBFE02A8FCF774FF019AE5E77B350000DA
:1036D000E871000010B504000069002806D00368F6
:1036E00061695B6A98470023236110BD1620404240
:1036F000FBE770B50400006913000268956A0A00D0
:103700006169A84770BD70B50400006913000268C4
:10371000D56A0A006169A84770BD036910B51A68C7
:103720004169126B1800904710BD036910B51A6803
:103730004169526B1800904710BD70B504000069D4
:1037400013000268956B0A006169A84770BD0369A0
:1037500010B51A684169D26B1800904710BD036913
:1037600010B51A684169126C1800904710BD0369C2
:1037700010B51A684169526C1800904710BD70B5B9
:103780000D0001690400002909D129680E6A0100B1
:1037900028001431B047002800D1256170BD1620E3
:1037A0004042FBE7084B10B508330360036904008F
:1037B000002B01D0FFF78EFF044B20002360FFF7A2
:1037C00015FE200010BDC0460C7700004C760000AE
:1037D00010B50400FFF7E6FF200000F0BAF9200062
:1037E00010BD0000002210B504001100FFF7D6FD47
:1037F000034B20000833236000232361636110BD65
:103800000C77000010B501F02DFF10BD10B501F0D0
:1038100087FF10BD10B501F0DBFE10BD70B50400D0
:10382000FEF7FAFEFA2105008900200000F0FEFBF9
:10383000061E03DDFDF7EAF9002805D1FEF7ECFED0
:10384000401BA042FAD370BD300000F07DFAF5E7CE
:1038500010B5044900F018FF01F0D2F9FFF7DEFFC0
:1038600010BDC04600247449FA2310B59B0058438C
:10387000FFF7D4FF10BD0000034B10B50360040038
:10388000FFF790FF200010BD60770000084B10B5D7
:103890001B68002B0AD1074C082120000422FFF7E7
:1038A000D3F9962120008901FFF70CF910BDC0461D
:1038B000C4040020580E00207047000010B504001A
:1038C000022801DC002010BD01F06EFA092300225D
:1038D0000360033C084BA400E058E250904208D03B
:1038E00003681B699847041EECDA01F05DFA644234
:1038F000046001204042E6E7E804002070B50600BD
:103900000D00140001F050FA09230360022E0EDCB2
:10391000124B1B68002B01D1FFF7B8FF2E19B542DF
:1039200016D029780E48FFF7C8FA0135F7E7033EAD
:103930000C4BB600F05800280CD003682200DB685E
:1039400029009847041E03DA01F02EFA634203604F
:10395000200070BD01246442FAE7C046C404002080
:10396000580E0020E804002070B504000D00160079
:1039700001F01AFA09230360022C0CDC104B1B68BF
:10398000002B01D1FFF782FF0E48FFF77FFA0124D9
:103990002870200070BD033C0B4BA400E0580028A9
:1039A0000BD0036832009B6829009847041EF0DAA8
:1039B00001F0FAF963420360EBE701246442E8E7AF
:1039C000C4040020580E0020E804002010B50400B4
:1039D00001F0EAF9092303600120022C12DD033C07
:1039E000094BA400E05800280AD003689B69984757
:1039F00004000020844205DA01F0D6F96442046034
:103A00000120404210BDC046E804002070B504000B
:103A10000D00160001F0C8F9092303600020022CF4
:103A20000ADD033C064BA400E058002805D00368DB
:103A30003200DB692900984770BD01204042FBE756
:103A4000E804002010B5022804DC802300209B013C
:103A50004B6010BD01F0A8F909230360012040422A
:103A6000F7E710B5FFF728FFFDF79EF910BD704787
:103A700010B5FFF7FCFFFCF7E3FD10BD0C4910B5D6
:103A80000B681818EFF30882904205D30C2201202E
:103A9000084B40421A6010BD074A1468002C04D03D
:103AA000064A126812199042F0D208601800F2E734
:103AB000E4F0FF1F600E002004060020080600202E
:103AC00070B50A4C05002368986801F08BFA2368EA
:103AD000D86801F087FAFDF795F8002801D0FDF7C6
:103AE000C9F8002D01D0FDF7D7F8FEE7E8F0FF1F79
:103AF0000120704710B5FFF7E3FF10B5002102F079
:103B000094FB10BD10B501F0AFFA10BD10B5FDF774
:103B100059F910BD10B5FDF75FF910BD10B501F0F2
:103B200015FD041E02D10248FDF7D0F8200010BD9B
:103B3000A477000010B5002801D001F011FD10BDE0
:103B400010B50400FFF798FE2000FFF7F3FF2000F8
:103B500010BD10B5FFF7EEFF10BD000070B50D4CA5
:103B600005002000FFF7FEFB0121494200F008F9A3
:103B7000002380211800084A49009E58AE4200D117
:103B8000985004338B42F8D12000FFF7EBFB00F094
:103B9000FCF870BDE8050020E8040020F0B585B011
:103BA00001915549060002F08DFC041E04D1FFF777
:103BB0006DFE200005B0F0BD5049300002F082FCDF
:103BC000002803D1FFF762FE0124F2E74C493000E0
:103BD00002F078FC002803D1FFF758FE0224E8E742
:103BE00001F0E2F80923474F03603800FFF7BAFB02
:103BF0000121494200F0C4F80024A3000093424B85
:103C0000A200D558002D5CD00134402CF5D101F034
:103C1000CBF8182303603800FFF7A4FB00F0B5F8D9
:103C20000FE0310002A8FFF75BFC02A8FFF7A0FC41
:103C3000002809D1344B009AD05001F0B5F8022386
:103C4000036001246442B4E702A8FFF77EFC002869
:103C500004D002A8FFF783FC050045E002A8FFF7A7
:103C60006BFC071E07D101F09FF80223009A036046
:103C7000254BD750E5E71820FFF750FF0600FFF768
:103C8000B1FD224B02A83360FFF749FC204B01999C
:103C9000020019400B0030003900FFF770FD071ECD
:103CA0000DDA01F081F87F420760002E03D03368FF
:103CB00030005B689847144BA4001D51C1E73500E4
:103CC00012E00123104A5B42A10038008B50FFF73D
:103CD00049FB00F05AF833783A2BA2D102AA0D49D9
:103CE000300002F079FB029D002DE4D0064AA300CB
:103CF000D55003345DE7C046C9770000D077000097
:103D0000C1770000E8050020E8040020607700008B
:103D1000FFFFFEFF8C76000070B50400FFF7DAFCB1
:103D20000500002C03D0236820005B68984728001A
:103D300070BD0000034B10B51B68002B00D09847E6
:103D400010BDC0460C06002010B5FDF73FFD10BDAC
:103D500070B505000400083510220021280001F08C
:103D60002FFC6560201DFDF7ABFD2060002802D10F
:103D70000248FCF7ABFF200070BDC046D8770000BA
:103D800010B50068FDF7BEFD10BD10B50068FDF769
:103D9000E3FD10BD10B504000068FDF729FE20000A
:103DA00010BD000080F309887047EFF30980704769
:103DB000684680F309884A480078C00703D1032089
:103DC00080F314887047022080F314887047454BB5
:103DD0009C46EFF305831B0605D1EFF31483DB0745
:103DE00001D000DF704760473F4B9C46EFF30583EF
:103DF0001B0605D1EFF31483DB0701D000DF70470A
:103E00006047EFF3098081690239097800292BD1D5
:103E1000A6461FC8A4467446E047EFF3098307C3CC
:103E2000324B06CB91421CD0083B00290DD0EFF35A
:103E300009802038C862F0C044464D4656465F4669
:103E4000F0C00CB4FDF7B6F90CBC1A60D06A1030A3
:103E5000F0C8A046A946B246BB4680F30988203880
:103E6000F0C80220C043004710B5214A12689142B1
:103E700009D8204C89006458A6461FC8A446F047BC
:103E8000EFF309840FC410BDFDF718F9174B06CBEB
:103E900091421AD0083BEFF309802038C862F0C085
:103EA00044464D4656465F46F0C00CB4FDF782F9D5
:103EB0000CBC1A60D06A1030F0C8A046A946B246C1
:103EC000BB4680F309882038F0C80220C043004771
:103ED000FDF752F9DAE7FDF74DF9FDF74DF9D5E7B2
:103EE000EA72000027120000451200000C0E0020AC
:103EF00000000000FCFFFFFFFEE7FEE7FEE7FEE735
:103F0000FEE7FEE702B4714649084900095C490032
:103F10008E4402BC7047C046002243088B4274D3D3
:103F200003098B425FD3030A8B4244D3030B8B42BA
:103F300028D3030C8B420DD3FF22090212BA030CC3
:103F40008B4202D31212090265D0030B8B4219D3A4
:103F500000E0090AC30B8B4201D3CB03C01A5241C4
:103F6000830B8B4201D38B03C01A5241430B8B420C
:103F700001D34B03C01A5241030B8B4201D30B03F5
:103F8000C01A5241C30A8B4201D3CB02C01A52411C
:103F9000830A8B4201D38B02C01A5241430A8B42DF
:103FA00001D34B02C01A5241030A8B4201D30B02C8
:103FB000C01A5241CDD2C3098B4201D3CB01C01AE2
:103FC000524183098B4201D38B01C01A52414309EC
:103FD0008B4201D34B01C01A524103098B4201D3DA
:103FE0000B01C01A5241C3088B4201D3CB00C01A47
:103FF000524183088B4201D38B00C01A52414308BF
:104000008B4201D34B00C01A5241411A00D20146E3
:10401000524110467047FFE701B5002000F0F0F86C
:1040200002BDC0460029F7D076E7704703460B4330
:104030007FD4002243088B4274D303098B425FD3A1
:10404000030A8B4244D3030B8B4228D3030C8B42CD
:104050000DD3FF22090212BA030C8B4202D31212B3
:10406000090265D0030B8B4219D300E0090AC30B88
:104070008B4201D3CB03C01A5241830B8B4201D335
:104080008B03C01A5241430B8B4201D34B03C01A1E
:104090005241030B8B4201D30B03C01A5241C30A96
:1040A0008B4201D3CB02C01A5241830A8B4201D307
:1040B0008B02C01A5241430A8B4201D34B02C01AF1
:1040C0005241030A8B4201D30B02C01A5241CDD296
:1040D000C3098B4201D3CB01C01A524183098B42E1
:1040E00001D38B01C01A524143098B4201D34B01CA
:1040F000C01A524103098B4201D30B01C01A52412D
:10410000C3088B4201D3CB00C01A524183088B42B3
:1041100001D38B00C01A524143088B4201D34B009C
:10412000C01A5241411A00D201465241104670470E
:104130005DE0CA0F00D04942031000D34042534013
:1041400000229C4603098B422DD3030A8B4212D3D3
:10415000FC22890112BA030A8B420CD38901921105
:104160008B4208D3890192118B4204D389013AD042
:10417000921100E08909C3098B4201D3CB01C01A17
:10418000524183098B4201D38B01C01A524143092A
:104190008B4201D34B01C01A524103098B4201D318
:1041A0000B01C01A5241C3088B4201D3CB00C01A85
:1041B000524183088B4201D38B00C01A5241D9D29D
:1041C00043088B4201D34B00C01A5241411A00D21E
:1041D0000146634652415B10104601D34042002B1A
:1041E00000D54942704763465B1000D3404201B599
:1041F000002000F005F802BD0029F8D016E770474E
:104200007047C0468446081C6146FFE71FB500F0B2
:10421000F9F9002801D40021C8421FBD10B500F0F3
:104220008BF94042013010BD10B500F0EBF90028C9
:1042300001DB002010BD012010BDC04610B500F00C
:10424000E1F9002801DD002010BD012010BDC046AD
:1042500010B500F097F9002801DC002010BD012006
:1042600010BDC04610B500F08DF9002801DA00201D
:1042700010BD012010BDC0469E2110B5C905041C0B
:10428000FFF7F0FF002803D1201C00F0B9FC10BD9F
:104290009E21201CC90500F017FB00F0B1FC802313
:1042A0001B069C466044F2E7F0B557464E46DE4694
:1042B0004546E0B544024300C60F83B00F1C640AB4
:1042C0001B0EB24653D0FF2B27D08022E400D2042D
:1042D00014437F22524290469844002399469B46BD
:1042E0007D027800FB0F6D0A000E009324D0FF289A
:1042F00046D080230021ED00DB041D437F38474674
:10430000381A4F460F43BF00B9463300009A874F13
:1043100053404A46BA5801939746002C4ED1082381
:104320009946F7339846FD3B9B467D027800FB0F8C
:104330006D0A000E0093DAD1002D26D10020012154
:104340003300009A7A4F53404246101A4A460A43B5
:104350009200BA581D009746009B2C009A468B4647
:104360005B46022B31D15346FF21002438E0002C5C
:1043700017D1042399460023984601339B46AFE7A3
:10438000FF20002D0BD10221DAE7280000F0EEFC1F
:10439000431F9D4076235B42181A0021AFE703219B
:1043A000ADE7200000F0E2FC431F9C4076235B4217
:1043B0001B1A9846002399469B4691E70C23994681
:1043C000F3339846FC3B9B468AE7032B00D1A5E0DC
:1043D0005546012B00D081E00123002100242B4011
:1043E0006402C905600ADB070843184303B03CBCFC
:1043F00090469946A246AB46F0BD80240023E403D4
:10440000FF21EDE7FF210024EAE70123591A1B29C8
:1044100066DD019A134000210024E1E78023DB03DD
:104420001C4238D01D4251D01C436402640A330040
:10443000FF21D5E763016C01A3423BD21B2600217B
:10444000013801251F0049005B00002F01DB9C4261
:1044500001D81B1B2943013E002EF3D11C00631E13
:104460009C410C4301007F310029CEDD630704D05D
:104470000F232340042B00D00434230103D5010073
:104480002C4B80311C40FE290DDD0123019AFF21B8
:1044900013400024A4E78023DB031C436402640A66
:1044A0003300FF219CE70123019AA401640AC9B2E9
:1044B000134095E71B1B1A260121C2E7009B8B4680
:1044C0009A4600244CE76302E5D500258024E403E6
:1044D0002C436402640A009BFF2181E70195C1E738
:1044E00023002020CB40411A8C40611E8C411C438C
:1044F000630704D00F232340042B00D0043463014E
:1045000005D50123019A01211340002468E7012306
:10451000019AA401640A1340002161E78023DB03B0
:104520001C436402640A5346FF2159E700780000E7
:1045300040780000FFFFFFF770B5420045024E02D1
:104540004C00C30F6D0A120E760A240EC90F01200B
:10455000FF2A06D0FF2C03D0A24201D1B54206D0DB
:1045600070BD002DFCD1FF2CFAD1002EF8D18B426A
:1045700006D00120002AF3D12800451EA841EFE70C
:104580000020EDE7F0B5420045024C02C30F4800A1
:104590006D0A120E640A000EC90FFF2A1ED0FF28F2
:1045A00021D0002A0AD16E426E41F6B200280FD106
:1045B000002C0DD10020002D09D005E0002801D1EC
:1045C000002C01D08B4211D0012158420843F0BD8C
:1045D000002EF7D0012001390843F8E7002DDED086
:1045E00002204042F3E7002CDBD0F9E78242EBDC0B
:1045F00004DBA542E8D80020A542E8D20121581EDC
:104600000843E4E7F0B542004D024C004602760A4A
:10461000120EC30F6D0A240EC90FFF2A16D0FF2CED
:1046200018D0002A0AD170427041C0B2002C15D0B7
:10463000002805D0012001390843F0BD002C13D01B
:10464000994214D001205B421843F6E70220002E65
:10465000F3D1E4E70220002DEFD1E2E7002DE7D10E
:104660000020002EE9D0EDE7002DE9D1EAE7A242D3
:1046700006DCDFDBAE4203D80020AE42DAD3DCE753
:10468000012049420843D8E7F8B557464E4645460B
:10469000DE46E0B54702460088467F0A360EC40F64
:1046A000002E47D0FF2E24D0FB008027FF041F439D
:1046B000002399469A467F3E43465D025800DB0F31
:1046C0006D0A000E984643D0FF283BD0EB008025B2
:1046D0000022ED041D437F383618731C41469B466B
:1046E0004B46614013430F2B64D875489B00C35859
:1046F0009F46002F42D108239946063BFF269A4643
:10470000DAE74146022A28D0032A00D1CEE0012A66
:1047100000D0ACE0114000200022CCB24002D20513
:10472000400AE407104320433CBC90469946A24609
:10473000AB46F8BD002F15D104239946033B002654
:104740009A46B9E7FF200222002DC5D00322C3E715
:10475000002D19D100200122BEE70124FF220C40C8
:104760000020DBE7380000F001FB7626431F9F4066
:1047700000237642361A99469A469DE70C239946BD
:10478000093BFF269A4697E7280000F0EFFA431FFF
:104790009D4076235B42181A00229DE7802000246A
:1047A000C003FF22BAE73D005246ABE73D002100BF
:1047B0005246A7E73B0C9C462A04120C2B0C140013
:1047C000604665463F043F0C7C4342435D437B4368
:1047D000270C9B18FF18BA4203D980235B029C4622
:1047E000654424043A04240C121993015C1EA3416D
:1047F0003F0C920E7D191A43AD0115432B0104D5D0
:1048000001235E466A081D40154332007F32002AAC
:1048100025DD6B0704D00F232B40042B00D004357B
:104820002B0103D53200274B80321D40FE2A94DC39
:104830000124A801400AD2B20C406FE78020C003D7
:10484000074207D0054205D128434002400A4446AA
:10485000FF2263E738434002400AFF225EE701245B
:10486000A31A1B2B05DD0C400022002056E75E46F4
:10487000CBE72A002020DA40C31A9D402B005D1EA2
:10488000AB4113435A0704D00F221A40042A00D028
:1048900004335A0104D5012401220C4000203DE7D5
:1048A00001249B01580A0C40002237E78020012494
:1048B000C00328434002400A0C40FF222EE7C046B6
:1048C00080780000FFFFFFF7F0B54F46D64646461A
:1048D0004400C0B5C20F47024802400A84466646FB
:1048E0007B0A4800C90F9A46240E1500DB00000E13
:1048F0008946F600FF2800D18FE001214F464F4046
:104900003900914266D0221A002A00DC9DE000287E
:104910003DD1002E00D18BE0511E002900D0B5E022
:1049200001249B1B5A0144D59B019F09380000F0CC
:104930001DFA05388740844200DD96E0041B3A00EA
:1049400020200134E240041BA7403B005F1EBB4116
:10495000002413435A0704D00F221A40042A00D01F
:1049600004335A0127D50134FF2C00D179E001220C
:104970009B015B0AE4B22A405B02E405580AD207B5
:10498000204310431CBC90469946A246F0BDFF2C24
:10499000E0D08021C9040E431B2A7BDC310020209B
:1049A000D140821A9640721E96410E439B1B5A01BB
:1049B000BAD45A07D0D10122DF082A40FF2C33D1C4
:1049C000002F00D1A8E08023DB033B435B025B0A9E
:1049D000FF24D1E7211A00294CDD00282AD0FF2C22
:1049E000B8D08020C00406431B2900DDAFE03000B2
:1049F0002027C840791A8E40711E8E4106439B19AC
:104A00005901D6D50134FF2C00D185E001227A4925
:104A10001A405B080B4013439CE7002E00D070E760
:104A20006BE73B1EC5D100227B025B0AE4B2A3E721
:104A300014008FE7002E4DD0481E002857D19B1937
:104A400001245A01B5D50224E0E7002A25D1621CD1
:104A5000D2B2012A72DD9F1B7A0135D5F71A0D00FB
:104A600064E7012200232A4086E73B00634A241AB8
:104A700013406FE700296CD1611CC8B201284EDDDC
:104A8000FF2949D09B195B080C0063E7FF2A41D03E
:104A90000A0081E701269B1B89E7002C1CD0FF2818
:104AA00021D08024E404524223431B2A00DD96E0F7
:104AB0001C002025D440AA1A93405A1E9341234338
:104AC000F31A04000D002DE7002F00D02EE700227E
:104AD0000024A9E70C003DE7002B58D0D243002A60
:104AE000EED0FF28E1D13300FF240D0032E7FF298B
:104AF00010D0010078E7002B6ED0FF24002E00D1EB
:104B000028E780225146D203114203D06146114268
:104B100000D13300FF241DE7FF2400232CE7002CE5
:104B2000E9D1002B63D0002E00D113E79B195A0165
:104B300000D43EE7314A0C0013400BE7002C1ED195
:104B4000002B2FD1002E4FD033000D0002E701269D
:104B500055E7002C1FD1002B43D0C94300290BD0AF
:104B6000FF2839D01B2944DC1C002027CC40791AAF
:104B70008B40591E8B4123439B19040040E7002BB7
:104B80001AD1002E24D180270022FF031BE7330017
:104B900004000D00DEE6FF281ED08024E404494214
:104BA0002343DFE7002E00D1D4E69F1B7A0100D417
:104BB00037E7F31A0D00CDE6FF24002E00D1C9E639
:104BC00080225046D2031042A4D060461042A1D1A8
:104BD00033000D00FF24BDE63300FF24BAE60123B5
:104BE0006EE733000400B5E6002700221CE733001F
:104BF000B0E60123C0E7C046FFFFFF7DFFFFFFFBDC
:104C000041024300C20F490A1B0E00207E2B0DDD1E
:104C10009D2B0CDC802000040143952B0ADC9620A0
:104C2000C31AD9404842002A00D108007047034BFC
:104C3000D018FBE7963B9940F4E7C046FFFFFF7FA3
:104C400070B5002830D0C317C4185C40C50F2000D1
:104C500000F08CF89E231B1A962B0DDC9622D21A9C
:104C600094402A006402640ADBB26402DB05600A35
:104C7000D2071843104370BD992B19DC9922D21A20
:104C8000002A29DD94402200144C1440510704D01E
:104C90000F210A40042A00D00434620113D4A40175
:104CA000640ADBB22A00E0E7002200230024DCE7EC
:104CB00005222100121AD140B922D21A9440621E54
:104CC00094410C43DAE7054B2A001C409F23A401C2
:104CD0001B1A640ADBB2C8E72200D5E7FFFFFFFB1F
:104CE00010B5041E27D000F041F89E231B1A962B06
:104CF0000ADC9622D21A94406402640ADBB264028F
:104D0000DB05600A184310BD992B17DC9922D21AD3
:104D1000002A27DD94402200134C1440510704D090
:104D20000F210A40042A00D00434620112D4A401E5
:104D3000640ADBB2E3E700230024E0E7B9222100A4
:104D4000D21A91400A00511E8A410521091ACC400D
:104D50001443DBE7044B1C409F23A4011B1A640A85
:104D6000DBB2CCE72200D7E7FFFFFFFB1C210123CA
:104D70001B04984201D3000C10391B0A984201D33E
:104D8000000A08391B09984201D30009043902A21C
:104D9000105C40187047C046040302020101010183
:104DA0000000000000000000014B18687047C0467A
:104DB000E8F0FF1F70B505000C1E02D10026300080
:104DC00070BD002804D08369002B01D100F098F950
:104DD000214B9C4235D16C680C22A35E002BEDD098
:104DE0002100280000F048F8236B0600002B06D0B5
:104DF000216A28009847002801DA01267642A38913
:104E00001B0603D521692800FEF704FD616B00290C
:104E100008D023004433994202D02800FEF7FAFC60
:104E200000236363A16C002904D02800FEF7F2FC84
:104E30000023A36400F0D8F90023A38100F0D5F982
:104E4000BDE7064B9C4201D1AC68C5E7044B9C42D0
:104E5000C2D1EC68C0E7C046E078000000790000ED
:104E6000C078000010B5034B01001868FFF7A2FFDF
:104E700010BDC046E8F0FF1FF7B58A8905000C0099
:104E8000130760D44B68002B04DC0B6C002B01DC97
:104E90000020FEBDE76A002FFAD000232E682B60A9
:104EA00080235B011A4034D0606DA3895B0706D56F
:104EB0006368C01A636B002B01D0236CC01A020018
:104EC000216A00232800E76AB847A189431C06D15C
:104ED0002B681D2B31D82C4ADA40D3072DD500235F
:104EE000636023692360CB0405D5431C02D12B6882
:104EF000002B00D16065616B2E600029C8D02300B3
:104F00004433994202D02800FEF784FC00206063FD
:104F1000BFE70123216A2800B847431CC5D12B688D
:104F2000002BC2D01D2B01D0162B01D12E60AFE774
:104F30004023A2891343A381ABE740230B43012005
:104F4000A3814042A5E70F69002FA1D00B680F6035
:104F5000DB1B01930023920700D14B69A360019BE7
:104F6000002B00DC94E7019B3A00216A2800A66A26
:104F7000B047002803DC4023A2891343DFE7019BED
:104F80003F181B1A0193EAE7010040200B6970B536
:104F900005000C00002B01D1002070BD002804D0BA
:104FA0008369002B01D100F0ABF80B4B9C4209D177
:104FB0006C680C22A35E002BEED021002800FFF7C6
:104FC0005BFFEAE7054B9C4201D1AC68F1E7044B7B
:104FD0009C42EED1EC68ECE7E0780000007900003C
:104FE000C078000010B5011E05D1054B05491868B1
:104FF00000F0FAF910BD044B1868FFF7C7FFF9E796
:10500000207900008D4F0000E8F0FF1F70B505000B
:105010000C00002804D08369002B01D100F070F847
:105020000E4B9C420AD16C686368013B6360002BA5
:105030000EDA2100280001F085F870BD084B9C4273
:1050400001D1AC68F0E7074B9C42EDD1EC68EBE78F
:1050500023685A1C22601878EFE7C046E078000009
:1050600000790000C078000010B5034B01001868FB
:10507000FFF7CCFF10BDC046E8F0FF1F10B5024996
:1050800000F0B2F910BDC0468D4F0000002310B5EE
:10509000040003604360836081814366C2810361D1
:1050A00043618361190008225C3000F089FA054BE6
:1050B00024626362044BA362044BE362044B2363E8
:1050C00010BDC04629640000556400008D640000D6
:1050D000B964000070B568254A1E55430E002900CA
:1050E0007431FEF78FFB041E08D000212A000160F6
:1050F00046600C30A060683200F062FA200070BD9B
:10510000836913B50400002B28D18364C36403654D
:10511000134B144A1B6882620193984201D1012308
:105120008361200000F020F86060200000F01CF88F
:10513000A060200000F018F80022E0600421606800
:10514000FFF7A4FF01220921A068FFF79FFF0222B9
:105150001221E068FFF79AFF0123A36113BDC04647
:10516000207900007D500000F8B51E4B07001E6836
:10517000B369002B02D13000FFF7C2FF4836B46894
:105180007368013B04D53368002B07D03668F6E717
:105190000C22A55E002D0DD06834F2E70421380002
:1051A000FFF798FF30600028F0D10C2304003B602B
:1051B0002000F8BD012320005B42E3810233A3817C
:1051C00065662560A560656025616561A561082249
:1051D00029005C3000F0F4F96563A563A564E5641B
:1051E000E6E7C0462079000070477047F7B50F002A
:1051F000110001AA050001F0E5FB061E02D1002402
:105200002000FEBD2800FFF7AFFF041EF7D0DB2310
:10521000019A5B003900280000F0E4FE002806DA5D
:105220000025FFF7E1FFA581FFF7DFFFE7E70A4B66
:10523000E0816362094BA681A362094B2462E362A9
:10524000084B2363F305DBD502230022210028004D
:1052500000F014F8D4E7C04629640000556400004B
:105260008D640000B964000010B5034B0A00010012
:105270001868FFF7BBFF10BDE8F0FF1F10B500F086
:1052800001F810BDF7B505000C0001921E000028C2
:1052900004D08369002B01D1FFF732FF404B9C42C1
:1052A00011D16C688422A38952001340934203D128
:1052B00021002800FFF76AFEE36A0093002B0CD15F
:1052C0001D332B605FE0374B9C4201D1AC68E9E7AE
:1052D000354B9C42E6D1EC68E4E7012E33D0022E38
:1052E00002D01623002EECD12369002B03D121001C
:1052F000280000F0E7F821002800FFF747FE071E0E
:1053000041D13300019A216A2800009EB047431C16
:1053100039D0616B002908D023004433994202D070
:105320002800FEF777FA0023636300212000236939
:105330001E4A2360A38961601340A38108225C3068
:1053400000F03EF921E021002800FFF71FFE802336
:10535000A2895B011A400FD0606DA3895A0716D548
:105360006368C01A636B002B01D0236CC01A019BC9
:1053700000261B180193B7E73300216A2800009E1E
:10538000B047431CE9D101277F423800FEBD1B070F
:10539000EDD52368002BEAD022699B1AC018E6E7F6
:1053A000E078000000790000C0780000DFF7FFFF20
:1053B000F7B54830040000260191002C01D13000DF
:1053C000FEBDA5686768013F01D52468F5E7AB8994
:1053D000012B07D90E22AB5E013303D02800019BBD
:1053E000984706436835EEE7F7B504000700002646
:1053F00001914834002C01D13000FEBD6368A568DE
:105400000093009B013B009301D52468F2E7AB8930
:10541000012B08D90E22AB5E013304D029003800DD
:10542000019B984706436835EBE7000070B50026FE
:105430000C4D0D4C641BA410A64209D1002601F0AE
:10544000C7FE0A4D0A4C641BA410A64205D170BDCC
:10545000B300EB5898470136EEE7B300EB58984796
:105460000136F2E7B8F2FF1FB8F2FF1FB8F2FF1FD4
:10547000C0F2FF1F70B50E001D000E23C95E90B074
:105480001400002907DA00232B60B3891B0611D40E
:105490008023DB000FE001AA01F0CEFA0028F2DB46
:1054A000F022029B12021340054A9B185A425341B4
:1054B0002B60EDE740230020236010B070BDC04694
:1054C00000E0FFFFF7B502268B8905000C00334290
:1054D00006D0230047332360236101236361F7BDB6
:1054E00001AB6A46FFF7C6FF009907002800FEF7E8
:1054F00089F9002808D10C22A35E9A05EFD4032273
:1055000093431E43A681E4E70F4BAB628023A2893D
:1055100020601343A381009B20616361019B002BEA
:105520000DD00E23E15E280001F098FA002806D085
:105530000322A38993431A0001231343A381A08963
:105540003843A081CBE7C0467D50000010B5034B27
:1055500001001868FEF756F910BDC046E8F0FF1FBD
:1055600010B5034B01001868FEF754F910BDC04692
:10557000E8F0FF1FC9B28218904201D100207047A5
:1055800003788B42FBD00130F6E7002310B59A4236
:1055900000D110BDCC5CC4540133F8E710B588428B
:1055A00002D98B18984208D300239A4207D0CC5CCA
:1055B000C4540133F9E78B5C8354013AFBD210BD2C
:1055C00003008218934200D1704719700133F9E744
:1055D00070B50500002910D00C1F2368002B00DADD
:1055E000E4182800FEF792FA1D4A1368002B05D133
:1055F000636014602800FEF78DFA70BDA34209D9DC
:10560000216860188342F3D118685B6841182160F3
:10561000EEE713005A68002A01D0A242F9D91968AE
:105620005818A0420BD120680918581819608242F6
:10563000E0D110685268411819605A60DAE7A04258
:1056400002D90C232B60D5E721686018824203D170
:10565000106852684118216062605C60CAE7C04609
:1056600010060020032370B5CD1C9D4308350600AD
:105670000C2D1ED20C25A9421DD83000FEF746FA8B
:10568000254A14682100002919D1244C2368002BD5
:1056900003D1300000F086FD20602900300000F0CA
:1056A00081FD431C2CD10C2330003360FEF732FA0D
:1056B00003E0002DDFDA0C233360002070BD0B689F
:1056C0005B1B1AD40B2B03D90B60CC18256003E0AD
:1056D0008C420ED1636813603000FEF71BFA200085
:1056E00007220B30231D9043C31AE7D05A42E250E1
:1056F000E4E74B6863600C00EEE70C004968C2E722
:105700000323C41C9C43A042E0D0211A300000F0C7
:1057100049FD431CDAD1C6E710060020140600201C
:10572000F8B507000D001600002905D11100FEF79D
:1057300069F804002000F8BD002A03D1FEF76AF8DA
:105740003400F7E701F0D4F92C008642F2D9310099
:105750003800FEF757F8041EECD029003200FFF79E
:1057600014FF29003800FEF755F8E3E7936810B5F9
:10577000013B9360002B05DA9469A34208DBCBB2AE
:105780000A2B05D01368581C10601970C8B210BDE0
:1057900001F026F8FBE7F8B506000F001400D51855
:1057A000AC4201D1002007E021783A003000FFF739
:1057B000DDFF0134431CF3D1F8BD0000F0B59FB00C
:1057C00006000F0014000593002804D08369002B05
:1057D00001D1FFF795FC7F4B9F425CD17768BB8975
:1057E0001B0762D53B69002B5FD0002306AD6B61C0
:1057F00020336B761033AB760294029C2378002B17
:105800005DD1029BE31A04930DD0049B029A3900E8
:105810003000FFF7C0FF431C00D1CCE06A69049B55
:10582000944663446B612378002B00D1C3E00122CE
:10583000002352426A6002A95432521801342B608C
:10584000EB60AB601370AB65217805226248FFF70F
:1058500091FE631C9C46002835D12968CB0604D5EF
:10586000532302AA20309B1818700B0704D553232A
:105870002B2002AA9B18187023782A2B2CD00020EA
:105880000A21099B2278303A092A00D86BE00028C7
:105890002AD0099328E0514B9F4201D1B7689EE777
:1058A0004F4B9F429BD1F76899E73900300001F0D8
:1058B00001F8002899D0012040421FB0F0BD252BEF
:1058C0009FD001349AE7444B2968C01A01238340D2
:1058D0000B432B606446B7E7059B181D1B680590BA
:1058E000002B3ADB0993644623782E2B0BD1637887
:1058F000621C2A2B3FD1059B02341A1D1B6805929E
:10590000002B35DB0793217803223648FFF732FE60
:10591000002807D0334B2A68C01A40238340134322
:105920002B6001342178631C06222F4802932976CC
:10593000FFF720FE002844D02C4B002B2FD12968E4
:10594000059B0722C90528D59B1893430833059367
:105950006B69039A9B186B614FE75B42EB60022314
:105960000B432B60BFE74B4301349B18012089E7B1
:1059700001235B42C6E7002314000A201A006B6073
:1059800021783039092903D9002BBCD00792BAE716
:105990004243013452180123F2E70733D5E705AB40
:1059A00000933A00124B2900300000E000BF039042
:1059B000039B0133CCD1BB895B0600D57BE70B98F9
:1059C0007BE705AB00933A00094B2900300000F05B
:1059D0008BF8ECE7E0780000247900000079000003
:1059E000C07800002A7900002E7900000000000035
:1059F0009757000010B513000A0001000248006824
:105A0000FFF7DCFE10BDC046E8F0FF1FF7B515003C
:105A100001938A680B6900900C00934200DA13002E
:105A200022002B6043321278002A01D001332B6010
:105A300023689B0602D52B6802332B600627236858
:105A40001F4027D0230043331B785A1E93412268FE
:105A5000920630D42200019943320098089EB04744
:105A6000431C25D0062320682A68E16803400025EE
:105A7000042B03D18D1AEB43DB171D40A368226969
:105A8000934201DD9B1AED180027BD4220D1002072
:105A900010E00137E3682A689B1A9F42D2DA22009D
:105AA0000123193201990098089EB047431CF0D198
:105AB00001204042FEBD3020E11843310870210032
:105AC0005A1C45310978A218433202331170C1E7DC
:105AD000220001231A3201990098089EB047431C06
:105AE000E6D00137D1E70000F0B58BB006920A008E
:105AF00043320793059004920A7E0C00109B6E2A95
:105B000000D18FE017D8632A2CD008D8002A00D102
:105B100099E0582A54D026004236327029E0642A8F
:105B200001D0692AF7D121681A68080623D5111D0A
:105B30001960156825E0732A00D188E008D86F2A1B
:105B400029D0702AE7D1202209680A43226003E0A5
:105B5000752A20D0782ADED12200782145321170B2
:105B60006C4A30E00E001A684236111D1960136845
:105B70003370012379E04906D9D5111D196000233E
:105B8000D55E002D03DA2D23049A6D421370624B0B
:105B90000A2703932FE020681968050603D5081D1E
:105BA00018600D6805E04006F9D50D68081D1860FD
:105BB000ADB2594B082703936F2A18D00A2716E075
:105BC00045310A70544A03921A682168101D186002
:105BD0001568080622D5CB0702D52023194321607A
:105BE0001027002D03D1202322689A43226023002E
:105BF000002243331A706368A360002B5CDB04222D
:105C0000216891432160002D58D1049E002B64D05F
:105C10002600039B42361B7833705EE04806DAD5D7
:105C2000ADB2D8E709681A68080605D5111D1960D4
:105C3000136862691A6006E04906F7D5111D1960FC
:105C40001368A28A1A800023049E236154E01A6814
:105C5000111D19601668002162683000FFF78AFC88
:105C6000002801D0801B6060636823610023049AD0
:105C7000137041E02369320006990598079DA847F3
:105C8000431C43D0236800259B070FD4099BE06881
:105C900098423DDA18003BE02200012319320699B0
:105CA0000598079EB047431C30D00135E368099A38
:105CB0009B1A9D42F0DBE9E7002DA9D0049E280045
:105CC0003900FEF7AFF9039B013E5B5C280033709F
:105CD0003900FEF721F9051EF1D1082F09D12368FB
:105CE000DB0706D563682269934202DC3023013E5C
:105CF0003370049B9B1B2361079B09AA009321001F
:105D0000069B0598FFF782FE431CB3D10120404259
:105D10000BB0F0BD4679000035790000F7B51500ED
:105D20008A6801900C00002A06D18A69511E8A41B6
:105D3000012152420A43A2602268D20603D41A68A3
:105D4000111D196017680026A369002B1CD0012BB8
:105D500008D12B6862691B78D35C002B14D1002E0C
:105D600030D106E0022B06D0002E2BD1A369012BE7
:105D700028D10120FEBD00F087FE08222B681B7889
:105D8000C01843781342EFD1102223680136134222
:105D900003D12B681B783B7001372A686B6801328E
:105DA0002A60A268013B013A6B60A260002A09D018
:105DB000002BC9DCC0235B00E358290001989847F9
:105DC0000028C1D010232268134006D1E2680132B6
:105DD000E260A269002A00D03B70236900209E196E
:105DE0002661C7E7F0B50C008DB00293774B0590A4
